{
  "_format": "hh-sol-artifact-1",
  "contractName": "TorNFT",
  "sourceName": "contracts/OsunRiverNFT.sol",
  "abi": [
    {
      "inputs": [],
      "stateMutability": "nonpayable",
      "type": "constructor"
    },
    {
      "anonymous": false,
      "inputs": [
        {
          "indexed": true,
          "internalType": "address",
          "name": "owner",
          "type": "address"
        },
        {
          "indexed": true,
          "internalType": "address",
          "name": "approved",
          "type": "address"
        },
        {
          "indexed": true,
          "internalType": "uint256",
          "name": "tokenId",
          "type": "uint256"
        }
      ],
      "name": "Approval",
      "type": "event"
    },
    {
      "anonymous": false,
      "inputs": [
        {
          "indexed": true,
          "internalType": "address",
          "name": "owner",
          "type": "address"
        },
        {
          "indexed": true,
          "internalType": "address",
          "name": "operator",
          "type": "address"
        },
        {
          "indexed": false,
          "internalType": "bool",
          "name": "approved",
          "type": "bool"
        }
      ],
      "name": "ApprovalForAll",
      "type": "event"
    },
    {
      "anonymous": false,
      "inputs": [
        {
          "indexed": true,
          "internalType": "address",
          "name": "previousOwner",
          "type": "address"
        },
        {
          "indexed": true,
          "internalType": "address",
          "name": "newOwner",
          "type": "address"
        }
      ],
      "name": "OwnershipTransferred",
      "type": "event"
    },
    {
      "anonymous": false,
      "inputs": [
        {
          "indexed": true,
          "internalType": "address",
          "name": "from",
          "type": "address"
        },
        {
          "indexed": true,
          "internalType": "address",
          "name": "to",
          "type": "address"
        },
        {
          "indexed": true,
          "internalType": "uint256",
          "name": "tokenId",
          "type": "uint256"
        }
      ],
      "name": "Transfer",
      "type": "event"
    },
    {
      "inputs": [
        {
          "internalType": "address",
          "name": "to",
          "type": "address"
        },
        {
          "internalType": "uint256",
          "name": "tokenId",
          "type": "uint256"
        }
      ],
      "name": "approve",
      "outputs": [],
      "stateMutability": "nonpayable",
      "type": "function"
    },
    {
      "inputs": [
        {
          "internalType": "address",
          "name": "owner",
          "type": "address"
        }
      ],
      "name": "balanceOf",
      "outputs": [
        {
          "internalType": "uint256",
          "name": "",
          "type": "uint256"
        }
      ],
      "stateMutability": "view",
      "type": "function"
    },
    {
      "inputs": [
        {
          "internalType": "address",
          "name": "receiver",
          "type": "address"
        },
        {
          "internalType": "string",
          "name": "tokenURI",
          "type": "string"
        }
      ],
      "name": "createNFT",
      "outputs": [
        {
          "internalType": "uint256",
          "name": "",
          "type": "uint256"
        }
      ],
      "stateMutability": "nonpayable",
      "type": "function"
    },
    {
      "inputs": [
        {
          "internalType": "uint256",
          "name": "tokenId",
          "type": "uint256"
        }
      ],
      "name": "getApproved",
      "outputs": [
        {
          "internalType": "address",
          "name": "",
          "type": "address"
        }
      ],
      "stateMutability": "view",
      "type": "function"
    },
    {
      "inputs": [
        {
          "internalType": "address",
          "name": "owner",
          "type": "address"
        },
        {
          "internalType": "address",
          "name": "operator",
          "type": "address"
        }
      ],
      "name": "isApprovedForAll",
      "outputs": [
        {
          "internalType": "bool",
          "name": "",
          "type": "bool"
        }
      ],
      "stateMutability": "view",
      "type": "function"
    },
    {
      "inputs": [],
      "name": "name",
      "outputs": [
        {
          "internalType": "string",
          "name": "",
          "type": "string"
        }
      ],
      "stateMutability": "view",
      "type": "function"
    },
    {
      "inputs": [],
      "name": "owner",
      "outputs": [
        {
          "internalType": "address",
          "name": "",
          "type": "address"
        }
      ],
      "stateMutability": "view",
      "type": "function"
    },
    {
      "inputs": [
        {
          "internalType": "uint256",
          "name": "tokenId",
          "type": "uint256"
        }
      ],
      "name": "ownerOf",
      "outputs": [
        {
          "internalType": "address",
          "name": "",
          "type": "address"
        }
      ],
      "stateMutability": "view",
      "type": "function"
    },
    {
      "inputs": [],
      "name": "renounceOwnership",
      "outputs": [],
      "stateMutability": "nonpayable",
      "type": "function"
    },
    {
      "inputs": [
        {
          "internalType": "address",
          "name": "from",
          "type": "address"
        },
        {
          "internalType": "address",
          "name": "to",
          "type": "address"
        },
        {
          "internalType": "uint256",
          "name": "tokenId",
          "type": "uint256"
        }
      ],
      "name": "safeTransferFrom",
      "outputs": [],
      "stateMutability": "nonpayable",
      "type": "function"
    },
    {
      "inputs": [
        {
          "internalType": "address",
          "name": "from",
          "type": "address"
        },
        {
          "internalType": "address",
          "name": "to",
          "type": "address"
        },
        {
          "internalType": "uint256",
          "name": "tokenId",
          "type": "uint256"
        },
        {
          "internalType": "bytes",
          "name": "data",
          "type": "bytes"
        }
      ],
      "name": "safeTransferFrom",
      "outputs": [],
      "stateMutability": "nonpayable",
      "type": "function"
    },
    {
      "inputs": [
        {
          "internalType": "address",
          "name": "operator",
          "type": "address"
        },
        {
          "internalType": "bool",
          "name": "approved",
          "type": "bool"
        }
      ],
      "name": "setApprovalForAll",
      "outputs": [],
      "stateMutability": "nonpayable",
      "type": "function"
    },
    {
      "inputs": [
        {
          "internalType": "bytes4",
          "name": "interfaceId",
          "type": "bytes4"
        }
      ],
      "name": "supportsInterface",
      "outputs": [
        {
          "internalType": "bool",
          "name": "",
          "type": "bool"
        }
      ],
      "stateMutability": "view",
      "type": "function"
    },
    {
      "inputs": [],
      "name": "symbol",
      "outputs": [
        {
          "internalType": "string",
          "name": "",
          "type": "string"
        }
      ],
      "stateMutability": "view",
      "type": "function"
    },
    {
      "inputs": [
        {
          "internalType": "uint256",
          "name": "tokenId",
          "type": "uint256"
        }
      ],
      "name": "tokenURI",
      "outputs": [
        {
          "internalType": "string",
          "name": "",
          "type": "string"
        }
      ],
      "stateMutability": "view",
      "type": "function"
    },
    {
      "inputs": [
        {
          "internalType": "address",
          "name": "from",
          "type": "address"
        },
        {
          "internalType": "address",
          "name": "to",
          "type": "address"
        },
        {
          "internalType": "uint256",
          "name": "tokenId",
          "type": "uint256"
        }
      ],
      "name": "transferFrom",
      "outputs": [],
      "stateMutability": "nonpayable",
      "type": "function"
    },
    {
      "inputs": [
        {
          "internalType": "address",
          "name": "newOwner",
          "type": "address"
        }
      ],
      "name": "transferOwnership",
      "outputs": [],
      "stateMutability": "nonpayable",
      "type": "function"
    }
  ],
  "bytecode": "0x60806040523480156200001157600080fd5b506040518060400160405280600c81526020017f5468654f73756e526976657200000000000000000000000000000000000000008152506040518060400160405280600381526020017f544f52000000000000000000000000000000000000000000000000000000000081525081600090816200008f919062000412565b508060019081620000a1919062000412565b505050620000c4620000b8620000ca60201b60201c565b620000d260201b60201c565b620004f9565b600033905090565b6000600760009054906101000a900473ffffffffffffffffffffffffffffffffffffffff16905081600760006101000a81548173ffffffffffffffffffffffffffffffffffffffff021916908373ffffffffffffffffffffffffffffffffffffffff1602179055508173ffffffffffffffffffffffffffffffffffffffff168173ffffffffffffffffffffffffffffffffffffffff167f8be0079c531659141344cd1fd0a4f28419497f9722a3daafe3b4186f6b6457e060405160405180910390a35050565b600081519050919050565b7f4e487b7100000000000000000000000000000000000000000000000000000000600052604160045260246000fd5b7f4e487b7100000000000000000000000000000000000000000000000000000000600052602260045260246000fd5b600060028204905060018216806200021a57607f821691505b60208210810362000230576200022f620001d2565b5b50919050565b60008190508160005260206000209050919050565b60006020601f8301049050919050565b600082821b905092915050565b6000600883026200029a7fffffffffffffffffffffffffffffffffffffffffffffffffffffffffffffffff826200025b565b620002a686836200025b565b95508019841693508086168417925050509392505050565b6000819050919050565b6000819050919050565b6000620002f3620002ed620002e784620002be565b620002c8565b620002be565b9050919050565b6000819050919050565b6200030f83620002d2565b620003276200031e82620002fa565b84845462000268565b825550505050565b600090565b6200033e6200032f565b6200034b81848462000304565b505050565b5b8181101562000373576200036760008262000334565b60018101905062000351565b5050565b601f821115620003c2576200038c8162000236565b62000397846200024b565b81016020851015620003a7578190505b620003bf620003b6856200024b565b83018262000350565b50505b505050565b600082821c905092915050565b6000620003e760001984600802620003c7565b1980831691505092915050565b6000620004028383620003d4565b9150826002028217905092915050565b6200041d8262000198565b67ffffffffffffffff811115620004395762000438620001a3565b5b62000445825462000201565b6200045282828562000377565b600060209050601f8311600181146200048a576000841562000475578287015190505b620004818582620003f4565b865550620004f1565b601f1984166200049a8662000236565b60005b82811015620004c4578489015182556001820191506020850194506020810190506200049d565b86831015620004e45784890151620004e0601f891682620003d4565b8355505b6001600288020188555050505b505050505050565b612dd280620005096000396000f3fe608060405234801561001057600080fd5b506004361061010b5760003560e01c8063715018a6116100a2578063a561403311610071578063a5614033146102a4578063b88d4fde146102d4578063c87b56dd146102f0578063e985e9c514610320578063f2fde38b146103505761010b565b8063715018a6146102425780638da5cb5b1461024c57806395d89b411461026a578063a22cb465146102885761010b565b806323b872dd116100de57806323b872dd146101aa57806342842e0e146101c65780636352211e146101e257806370a08231146102125761010b565b806301ffc9a71461011057806306fdde0314610140578063081812fc1461015e578063095ea7b31461018e575b600080fd5b61012a60048036038101906101259190611a28565b61036c565b6040516101379190611a70565b60405180910390f35b61014861044e565b6040516101559190611b24565b60405180910390f35b61017860048036038101906101739190611b7c565b6104e0565b6040516101859190611bea565b60405180910390f35b6101a860048036038101906101a39190611c31565b610526565b005b6101c460048036038101906101bf9190611c71565b61063d565b005b6101e060048036038101906101db9190611c71565b61069d565b005b6101fc60048036038101906101f79190611b7c565b6106bd565b6040516102099190611bea565b60405180910390f35b61022c60048036038101906102279190611cc4565b61076e565b6040516102399190611d00565b60405180910390f35b61024a610825565b005b610254610839565b6040516102619190611bea565b60405180910390f35b610272610863565b60405161027f9190611b24565b60405180910390f35b6102a2600480360381019061029d9190611d47565b6108f5565b005b6102be60048036038101906102b99190611ebc565b61090b565b6040516102cb9190611d00565b60405180910390f35b6102ee60048036038101906102e99190611fb9565b61094b565b005b61030a60048036038101906103059190611b7c565b6109ad565b6040516103179190611b24565b60405180910390f35b61033a6004803603810190610335919061203c565b610abf565b6040516103479190611a70565b60405180910390f35b61036a60048036038101906103659190611cc4565b610b53565b005b60007f80ac58cd000000000000000000000000000000000000000000000000000000007bffffffffffffffffffffffffffffffffffffffffffffffffffffffff1916827bffffffffffffffffffffffffffffffffffffffffffffffffffffffff1916148061043757507f5b5e139f000000000000000000000000000000000000000000000000000000007bffffffffffffffffffffffffffffffffffffffffffffffffffffffff1916827bffffffffffffffffffffffffffffffffffffffffffffffffffffffff1916145b80610447575061044682610bd6565b5b9050919050565b60606000805461045d906120ab565b80601f0160208091040260200160405190810160405280929190818152602001828054610489906120ab565b80156104d65780601f106104ab576101008083540402835291602001916104d6565b820191906000526020600020905b8154815290600101906020018083116104b957829003601f168201915b5050505050905090565b60006104eb82610c40565b6004600083815260200190815260200160002060009054906101000a900473ffffffffffffffffffffffffffffffffffffffff169050919050565b6000610531826106bd565b90508073ffffffffffffffffffffffffffffffffffffffff168373ffffffffffffffffffffffffffffffffffffffff16036105a1576040517f08c379a00000000000000000000000000000000000000000000000000000000081526004016105989061214e565b60405180910390fd5b8073ffffffffffffffffffffffffffffffffffffffff166105c0610c8b565b73ffffffffffffffffffffffffffffffffffffffff1614806105ef57506105ee816105e9610c8b565b610abf565b5b61062e576040517f08c379a0000000000000000000000000000000000000000000000000000000008152600401610625906121e0565b60405180910390fd5b6106388383610c93565b505050565b61064e610648610c8b565b82610d4c565b61068d576040517f08c379a000000000000000000000000000000000000000000000000000000000815260040161068490612272565b60405180910390fd5b610698838383610de1565b505050565b6106b88383836040518060200160405280600081525061094b565b505050565b6000806002600084815260200190815260200160002060009054906101000a900473ffffffffffffffffffffffffffffffffffffffff169050600073ffffffffffffffffffffffffffffffffffffffff168173ffffffffffffffffffffffffffffffffffffffff1603610765576040517f08c379a000000000000000000000000000000000000000000000000000000000815260040161075c906122de565b60405180910390fd5b80915050919050565b60008073ffffffffffffffffffffffffffffffffffffffff168273ffffffffffffffffffffffffffffffffffffffff16036107de576040517f08c379a00000000000000000000000000000000000000000000000000000000081526004016107d590612370565b60405180910390fd5b600360008373ffffffffffffffffffffffffffffffffffffffff1673ffffffffffffffffffffffffffffffffffffffff168152602001908152602001600020549050919050565b61082d611047565b61083760006110c5565b565b6000600760009054906101000a900473ffffffffffffffffffffffffffffffffffffffff16905090565b606060018054610872906120ab565b80601f016020809104026020016040519081016040528092919081815260200182805461089e906120ab565b80156108eb5780601f106108c0576101008083540402835291602001916108eb565b820191906000526020600020905b8154815290600101906020018083116108ce57829003601f168201915b5050505050905090565b610907610900610c8b565b838361118b565b5050565b6000610915611047565b61091f60086112f7565b600061092b600861130d565b9050610937848261131b565b61094181846114f4565b8091505092915050565b61095c610956610c8b565b83610d4c565b61099b576040517f08c379a000000000000000000000000000000000000000000000000000000000815260040161099290612272565b60405180910390fd5b6109a784848484611561565b50505050565b60606109b882610c40565b60006006600084815260200190815260200160002080546109d8906120ab565b80601f0160208091040260200160405190810160405280929190818152602001828054610a04906120ab565b8015610a515780601f10610a2657610100808354040283529160200191610a51565b820191906000526020600020905b815481529060010190602001808311610a3457829003601f168201915b505050505090506000610a626115bd565b90506000815103610a77578192505050610aba565b600082511115610aac578082604051602001610a949291906123cc565b60405160208183030381529060405292505050610aba565b610ab5846115d4565b925050505b919050565b6000600560008473ffffffffffffffffffffffffffffffffffffffff1673ffffffffffffffffffffffffffffffffffffffff16815260200190815260200160002060008373ffffffffffffffffffffffffffffffffffffffff1673ffffffffffffffffffffffffffffffffffffffff16815260200190815260200160002060009054906101000a900460ff16905092915050565b610b5b611047565b600073ffffffffffffffffffffffffffffffffffffffff168173ffffffffffffffffffffffffffffffffffffffff1603610bca576040517f08c379a0000000000000000000000000000000000000000000000000000000008152600401610bc190612462565b60405180910390fd5b610bd3816110c5565b50565b60007f01ffc9a7000000000000000000000000000000000000000000000000000000007bffffffffffffffffffffffffffffffffffffffffffffffffffffffff1916827bffffffffffffffffffffffffffffffffffffffffffffffffffffffff1916149050919050565b610c498161163c565b610c88576040517f08c379a0000000000000000000000000000000000000000000000000000000008152600401610c7f906122de565b60405180910390fd5b50565b600033905090565b816004600083815260200190815260200160002060006101000a81548173ffffffffffffffffffffffffffffffffffffffff021916908373ffffffffffffffffffffffffffffffffffffffff160217905550808273ffffffffffffffffffffffffffffffffffffffff16610d06836106bd565b73ffffffffffffffffffffffffffffffffffffffff167f8c5be1e5ebec7d5bd14f71427d1e84f3dd0314c0f7b2291e5b200ac8c7c3b92560405160405180910390a45050565b600080610d58836106bd565b90508073ffffffffffffffffffffffffffffffffffffffff168473ffffffffffffffffffffffffffffffffffffffff161480610d9a5750610d998185610abf565b5b80610dd857508373ffffffffffffffffffffffffffffffffffffffff16610dc0846104e0565b73ffffffffffffffffffffffffffffffffffffffff16145b91505092915050565b8273ffffffffffffffffffffffffffffffffffffffff16610e01826106bd565b73ffffffffffffffffffffffffffffffffffffffff1614610e57576040517f08c379a0000000000000000000000000000000000000000000000000000000008152600401610e4e906124f4565b60405180910390fd5b600073ffffffffffffffffffffffffffffffffffffffff168273ffffffffffffffffffffffffffffffffffffffff1603610ec6576040517f08c379a0000000000000000000000000000000000000000000000000000000008152600401610ebd90612586565b60405180910390fd5b610ed18383836116a8565b610edc600082610c93565b6001600360008573ffffffffffffffffffffffffffffffffffffffff1673ffffffffffffffffffffffffffffffffffffffff1681526020019081526020016000206000828254610f2c91906125d5565b925050819055506001600360008473ffffffffffffffffffffffffffffffffffffffff1673ffffffffffffffffffffffffffffffffffffffff1681526020019081526020016000206000828254610f839190612609565b92505081905550816002600083815260200190815260200160002060006101000a81548173ffffffffffffffffffffffffffffffffffffffff021916908373ffffffffffffffffffffffffffffffffffffffff160217905550808273ffffffffffffffffffffffffffffffffffffffff168473ffffffffffffffffffffffffffffffffffffffff167fddf252ad1be2c89b69c2b068fc378daa952ba7f163c4a11628f55a4df523b3ef60405160405180910390a46110428383836116ad565b505050565b61104f610c8b565b73ffffffffffffffffffffffffffffffffffffffff1661106d610839565b73ffffffffffffffffffffffffffffffffffffffff16146110c3576040517f08c379a00000000000000000000000000000000000000000000000000000000081526004016110ba906126ab565b60405180910390fd5b565b6000600760009054906101000a900473ffffffffffffffffffffffffffffffffffffffff16905081600760006101000a81548173ffffffffffffffffffffffffffffffffffffffff021916908373ffffffffffffffffffffffffffffffffffffffff1602179055508173ffffffffffffffffffffffffffffffffffffffff168173ffffffffffffffffffffffffffffffffffffffff167f8be0079c531659141344cd1fd0a4f28419497f9722a3daafe3b4186f6b6457e060405160405180910390a35050565b8173ffffffffffffffffffffffffffffffffffffffff168373ffffffffffffffffffffffffffffffffffffffff16036111f9576040517f08c379a00000000000000000000000000000000000000000000000000000000081526004016111f090612717565b60405180910390fd5b80600560008573ffffffffffffffffffffffffffffffffffffffff1673ffffffffffffffffffffffffffffffffffffffff16815260200190815260200160002060008473ffffffffffffffffffffffffffffffffffffffff1673ffffffffffffffffffffffffffffffffffffffff16815260200190815260200160002060006101000a81548160ff0219169083151502179055508173ffffffffffffffffffffffffffffffffffffffff168373ffffffffffffffffffffffffffffffffffffffff167f17307eab39ab6107e8899845ad3d59bd9653f200f220920489ca2b5937696c31836040516112ea9190611a70565b60405180910390a3505050565b6001816000016000828254019250508190555050565b600081600001549050919050565b600073ffffffffffffffffffffffffffffffffffffffff168273ffffffffffffffffffffffffffffffffffffffff160361138a576040517f08c379a000000000000000000000000000000000000000000000000000000000815260040161138190612783565b60405180910390fd5b6113938161163c565b156113d3576040517f08c379a00000000000000000000000000000000000000000000000000000000081526004016113ca906127ef565b60405180910390fd5b6113df600083836116a8565b6001600360008473ffffffffffffffffffffffffffffffffffffffff1673ffffffffffffffffffffffffffffffffffffffff168152602001908152602001600020600082825461142f9190612609565b92505081905550816002600083815260200190815260200160002060006101000a81548173ffffffffffffffffffffffffffffffffffffffff021916908373ffffffffffffffffffffffffffffffffffffffff160217905550808273ffffffffffffffffffffffffffffffffffffffff16600073ffffffffffffffffffffffffffffffffffffffff167fddf252ad1be2c89b69c2b068fc378daa952ba7f163c4a11628f55a4df523b3ef60405160405180910390a46114f0600083836116ad565b5050565b6114fd8261163c565b61153c576040517f08c379a000000000000000000000000000000000000000000000000000000000815260040161153390612881565b60405180910390fd5b8060066000848152602001908152602001600020908161155c9190612a4d565b505050565b61156c848484610de1565b611578848484846116b2565b6115b7576040517f08c379a00000000000000000000000000000000000000000000000000000000081526004016115ae90612b91565b60405180910390fd5b50505050565b606060405180602001604052806000815250905090565b60606115df82610c40565b60006115e96115bd565b905060008151116116095760405180602001604052806000815250611634565b8061161384611839565b6040516020016116249291906123cc565b6040516020818303038152906040525b915050919050565b60008073ffffffffffffffffffffffffffffffffffffffff166002600084815260200190815260200160002060009054906101000a900473ffffffffffffffffffffffffffffffffffffffff1673ffffffffffffffffffffffffffffffffffffffff1614159050919050565b505050565b505050565b60006116d38473ffffffffffffffffffffffffffffffffffffffff16611999565b1561182c578373ffffffffffffffffffffffffffffffffffffffff1663150b7a026116fc610c8b565b8786866040518563ffffffff1660e01b815260040161171e9493929190612c06565b6020604051808303816000875af192505050801561175a57506040513d601f19601f820116820180604052508101906117579190612c67565b60015b6117dc573d806000811461178a576040519150601f19603f3d011682016040523d82523d6000602084013e61178f565b606091505b5060008151036117d4576040517f08c379a00000000000000000000000000000000000000000000000000000000081526004016117cb90612b91565b60405180910390fd5b805181602001fd5b63150b7a0260e01b7bffffffffffffffffffffffffffffffffffffffffffffffffffffffff1916817bffffffffffffffffffffffffffffffffffffffffffffffffffffffff191614915050611831565b600190505b949350505050565b606060008203611880576040518060400160405280600181526020017f30000000000000000000000000000000000000000000000000000000000000008152509050611994565b600082905060005b600082146118b257808061189b90612c94565b915050600a826118ab9190612d0b565b9150611888565b60008167ffffffffffffffff8111156118ce576118cd611d91565b5b6040519080825280601f01601f1916602001820160405280156119005781602001600182028036833780820191505090505b5090505b6000851461198d5760018261191991906125d5565b9150600a856119289190612d3c565b60306119349190612609565b60f81b81838151811061194a57611949612d6d565b5b60200101907effffffffffffffffffffffffffffffffffffffffffffffffffffffffffffff1916908160001a905350600a856119869190612d0b565b9450611904565b8093505050505b919050565b6000808273ffffffffffffffffffffffffffffffffffffffff163b119050919050565b6000604051905090565b600080fd5b600080fd5b60007fffffffff0000000000000000000000000000000000000000000000000000000082169050919050565b611a05816119d0565b8114611a1057600080fd5b50565b600081359050611a22816119fc565b92915050565b600060208284031215611a3e57611a3d6119c6565b5b6000611a4c84828501611a13565b91505092915050565b60008115159050919050565b611a6a81611a55565b82525050565b6000602082019050611a856000830184611a61565b92915050565b600081519050919050565b600082825260208201905092915050565b60005b83811015611ac5578082015181840152602081019050611aaa565b83811115611ad4576000848401525b50505050565b6000601f19601f8301169050919050565b6000611af682611a8b565b611b008185611a96565b9350611b10818560208601611aa7565b611b1981611ada565b840191505092915050565b60006020820190508181036000830152611b3e8184611aeb565b905092915050565b6000819050919050565b611b5981611b46565b8114611b6457600080fd5b50565b600081359050611b7681611b50565b92915050565b600060208284031215611b9257611b916119c6565b5b6000611ba084828501611b67565b91505092915050565b600073ffffffffffffffffffffffffffffffffffffffff82169050919050565b6000611bd482611ba9565b9050919050565b611be481611bc9565b82525050565b6000602082019050611bff6000830184611bdb565b92915050565b611c0e81611bc9565b8114611c1957600080fd5b50565b600081359050611c2b81611c05565b92915050565b60008060408385031215611c4857611c476119c6565b5b6000611c5685828601611c1c565b9250506020611c6785828601611b67565b9150509250929050565b600080600060608486031215611c8a57611c896119c6565b5b6000611c9886828701611c1c565b9350506020611ca986828701611c1c565b9250506040611cba86828701611b67565b9150509250925092565b600060208284031215611cda57611cd96119c6565b5b6000611ce884828501611c1c565b91505092915050565b611cfa81611b46565b82525050565b6000602082019050611d156000830184611cf1565b92915050565b611d2481611a55565b8114611d2f57600080fd5b50565b600081359050611d4181611d1b565b92915050565b60008060408385031215611d5e57611d5d6119c6565b5b6000611d6c85828601611c1c565b9250506020611d7d85828601611d32565b9150509250929050565b600080fd5b600080fd5b7f4e487b7100000000000000000000000000000000000000000000000000000000600052604160045260246000fd5b611dc982611ada565b810181811067ffffffffffffffff82111715611de857611de7611d91565b5b80604052505050565b6000611dfb6119bc565b9050611e078282611dc0565b919050565b600067ffffffffffffffff821115611e2757611e26611d91565b5b611e3082611ada565b9050602081019050919050565b82818337600083830152505050565b6000611e5f611e5a84611e0c565b611df1565b905082815260208101848484011115611e7b57611e7a611d8c565b5b611e86848285611e3d565b509392505050565b600082601f830112611ea357611ea2611d87565b5b8135611eb3848260208601611e4c565b91505092915050565b60008060408385031215611ed357611ed26119c6565b5b6000611ee185828601611c1c565b925050602083013567ffffffffffffffff811115611f0257611f016119cb565b5b611f0e85828601611e8e565b9150509250929050565b600067ffffffffffffffff821115611f3357611f32611d91565b5b611f3c82611ada565b9050602081019050919050565b6000611f5c611f5784611f18565b611df1565b905082815260208101848484011115611f7857611f77611d8c565b5b611f83848285611e3d565b509392505050565b600082601f830112611fa057611f9f611d87565b5b8135611fb0848260208601611f49565b91505092915050565b60008060008060808587031215611fd357611fd26119c6565b5b6000611fe187828801611c1c565b9450506020611ff287828801611c1c565b935050604061200387828801611b67565b925050606085013567ffffffffffffffff811115612024576120236119cb565b5b61203087828801611f8b565b91505092959194509250565b60008060408385031215612053576120526119c6565b5b600061206185828601611c1c565b925050602061207285828601611c1c565b9150509250929050565b7f4e487b7100000000000000000000000000000000000000000000000000000000600052602260045260246000fd5b600060028204905060018216806120c357607f821691505b6020821081036120d6576120d561207c565b5b50919050565b7f4552433732313a20617070726f76616c20746f2063757272656e74206f776e6560008201527f7200000000000000000000000000000000000000000000000000000000000000602082015250565b6000612138602183611a96565b9150612143826120dc565b604082019050919050565b600060208201905081810360008301526121678161212b565b9050919050565b7f4552433732313a20617070726f76652063616c6c6572206973206e6f7420746f60008201527f6b656e206f776e6572206e6f7220617070726f76656420666f7220616c6c0000602082015250565b60006121ca603e83611a96565b91506121d58261216e565b604082019050919050565b600060208201905081810360008301526121f9816121bd565b9050919050565b7f4552433732313a2063616c6c6572206973206e6f7420746f6b656e206f776e6560008201527f72206e6f7220617070726f766564000000000000000000000000000000000000602082015250565b600061225c602e83611a96565b915061226782612200565b604082019050919050565b6000602082019050818103600083015261228b8161224f565b9050919050565b7f4552433732313a20696e76616c696420746f6b656e2049440000000000000000600082015250565b60006122c8601883611a96565b91506122d382612292565b602082019050919050565b600060208201905081810360008301526122f7816122bb565b9050919050565b7f4552433732313a2061646472657373207a65726f206973206e6f74206120766160008201527f6c6964206f776e65720000000000000000000000000000000000000000000000602082015250565b600061235a602983611a96565b9150612365826122fe565b604082019050919050565b600060208201905081810360008301526123898161234d565b9050919050565b600081905092915050565b60006123a682611a8b565b6123b08185612390565b93506123c0818560208601611aa7565b80840191505092915050565b60006123d8828561239b565b91506123e4828461239b565b91508190509392505050565b7f4f776e61626c653a206e6577206f776e657220697320746865207a65726f206160008201527f6464726573730000000000000000000000000000000000000000000000000000602082015250565b600061244c602683611a96565b9150612457826123f0565b604082019050919050565b6000602082019050818103600083015261247b8161243f565b9050919050565b7f4552433732313a207472616e736665722066726f6d20696e636f72726563742060008201527f6f776e6572000000000000000000000000000000000000000000000000000000602082015250565b60006124de602583611a96565b91506124e982612482565b604082019050919050565b6000602082019050818103600083015261250d816124d1565b9050919050565b7f4552433732313a207472616e7366657220746f20746865207a65726f2061646460008201527f7265737300000000000000000000000000000000000000000000000000000000602082015250565b6000612570602483611a96565b915061257b82612514565b604082019050919050565b6000602082019050818103600083015261259f81612563565b9050919050565b7f4e487b7100000000000000000000000000000000000000000000000000000000600052601160045260246000fd5b60006125e082611b46565b91506125eb83611b46565b9250828210156125fe576125fd6125a6565b5b828203905092915050565b600061261482611b46565b915061261f83611b46565b9250827fffffffffffffffffffffffffffffffffffffffffffffffffffffffffffffffff03821115612654576126536125a6565b5b828201905092915050565b7f4f776e61626c653a2063616c6c6572206973206e6f7420746865206f776e6572600082015250565b6000612695602083611a96565b91506126a08261265f565b602082019050919050565b600060208201905081810360008301526126c481612688565b9050919050565b7f4552433732313a20617070726f766520746f2063616c6c657200000000000000600082015250565b6000612701601983611a96565b915061270c826126cb565b602082019050919050565b60006020820190508181036000830152612730816126f4565b9050919050565b7f4552433732313a206d696e7420746f20746865207a65726f2061646472657373600082015250565b600061276d602083611a96565b915061277882612737565b602082019050919050565b6000602082019050818103600083015261279c81612760565b9050919050565b7f4552433732313a20746f6b656e20616c7265616479206d696e74656400000000600082015250565b60006127d9601c83611a96565b91506127e4826127a3565b602082019050919050565b60006020820190508181036000830152612808816127cc565b9050919050565b7f45524337323155524953746f726167653a2055524920736574206f66206e6f6e60008201527f6578697374656e7420746f6b656e000000000000000000000000000000000000602082015250565b600061286b602e83611a96565b91506128768261280f565b604082019050919050565b6000602082019050818103600083015261289a8161285e565b9050919050565b60008190508160005260206000209050919050565b60006020601f8301049050919050565b600082821b905092915050565b6000600883026129037fffffffffffffffffffffffffffffffffffffffffffffffffffffffffffffffff826128c6565b61290d86836128c6565b95508019841693508086168417925050509392505050565b6000819050919050565b600061294a61294561294084611b46565b612925565b611b46565b9050919050565b6000819050919050565b6129648361292f565b61297861297082612951565b8484546128d3565b825550505050565b600090565b61298d612980565b61299881848461295b565b505050565b5b818110156129bc576129b1600082612985565b60018101905061299e565b5050565b601f821115612a01576129d2816128a1565b6129db846128b6565b810160208510156129ea578190505b6129fe6129f6856128b6565b83018261299d565b50505b505050565b600082821c905092915050565b6000612a2460001984600802612a06565b1980831691505092915050565b6000612a3d8383612a13565b9150826002028217905092915050565b612a5682611a8b565b67ffffffffffffffff811115612a6f57612a6e611d91565b5b612a7982546120ab565b612a848282856129c0565b600060209050601f831160018114612ab75760008415612aa5578287015190505b612aaf8582612a31565b865550612b17565b601f198416612ac5866128a1565b60005b82811015612aed57848901518255600182019150602085019450602081019050612ac8565b86831015612b0a5784890151612b06601f891682612a13565b8355505b6001600288020188555050505b505050505050565b7f4552433732313a207472616e7366657220746f206e6f6e20455243373231526560008201527f63656976657220696d706c656d656e7465720000000000000000000000000000602082015250565b6000612b7b603283611a96565b9150612b8682612b1f565b604082019050919050565b60006020820190508181036000830152612baa81612b6e565b9050919050565b600081519050919050565b600082825260208201905092915050565b6000612bd882612bb1565b612be28185612bbc565b9350612bf2818560208601611aa7565b612bfb81611ada565b840191505092915050565b6000608082019050612c1b6000830187611bdb565b612c286020830186611bdb565b612c356040830185611cf1565b8181036060830152612c478184612bcd565b905095945050505050565b600081519050612c61816119fc565b92915050565b600060208284031215612c7d57612c7c6119c6565b5b6000612c8b84828501612c52565b91505092915050565b6000612c9f82611b46565b91507fffffffffffffffffffffffffffffffffffffffffffffffffffffffffffffffff8203612cd157612cd06125a6565b5b600182019050919050565b7f4e487b7100000000000000000000000000000000000000000000000000000000600052601260045260246000fd5b6000612d1682611b46565b9150612d2183611b46565b925082612d3157612d30612cdc565b5b828204905092915050565b6000612d4782611b46565b9150612d5283611b46565b925082612d6257612d61612cdc565b5b828206905092915050565b7f4e487b7100000000000000000000000000000000000000000000000000000000600052603260045260246000fdfea2646970667358221220064b45c079457fb5b42b20cb43cf53417828716260edd455a1996ff9e033e92864736f6c634300080f0033",
  "linkReferences": {},
  "deployedLinkReferences": {}
}